:020000040800F2
:10000000504200209D01000823240008F516000836
:1000100021240008A9020008892600080000000029
:10002000000000000000000000000000CD250008D6
:10003000690300080000000025240008CF250008FF
:10004000B7010008B7010008B7010008B7010008B0
:10005000B7010008B7010008B7010008B7010008A0
:10006000B7010008B7010008B7010008AD02000899
:10007000B7010008B7010008B7010008B701000880
:10008000B7010008B9020008B7010008B70100086D
:10009000B7010008B7010008B7010008B701000860
:1000A000B7010008B7010008B7010008B701000850
:1000B000B7010008B7010008B7010008F9160008E9
:1000C000B7010008B7010008B7010008B701000830
:1000D000B7010008B7010008B7010008B701000820
:1000E000B7010008B7010008B7010008B701000810
:1000F000B7010008B7010008B7010008B701000800
:10010000B7010008B7010008B7010008B7010008EF
:10011000B7010008B7010008B7010008B7010008DF
:10012000B7010008B7010008B7010008B7010008CF
:10013000B7010008B7010008B7010008B7010008BF
:10014000B7010008B7010008B7010008B7010008AF
:10015000B7010008B7010008B7010008B70100089F
:10016000B7010008B7010008B7010008B70100088F
:10017000B7010008B7010008B7010008000000003F
:10018000B7010008B7010008DFF80CD000F07AF8DA
:1001900000480047ED2600085042002006488047EE
:1001A00006480047FEE7FEE7FEE7FEE7FEE7FEE75C
:1001B000FEE7FEE7FEE7FEE76D260008890100087E
:1001C0002DE9F05F0546002092469B46884606468C
:1001D000814640241BE0284641464746224600F01F
:1001E00041F853465A46C01A914110D31146184659
:1001F000224600F028F82D1A67EB01084F462246E8
:100200000120002100F01FF817EB00094E41201ECD
:10021000A4F10104DFDC484631462A464346BDE8E6
:10022000F09FD2B201E000F8012B491EFBD27047CB
:100230000022F6E710B513460A4604461946FFF7B2
:10024000F0FF204610BD202A04DB203A00FA02F11C
:10025000002070479140C2F1200320FA03F31943B4
:1002600090407047202A04DB203A21FA02F0002156
:10027000704721FA02F3D040C2F1200291400843B6
:1002800019467047064C074D06E0E06840F0010350
:1002900094E8070098471034AC42F6D3FFF778FF94
:1002A00088510008A8510008FEE70000014800F04E
:1002B00073B9000090010020014800F06DB9000002
:1002C000F001002001681823CAB2103AB2FBF3F221
:1002D000054B6FF30901032A9B5CC36500D9091D17
:1002E00081650846704700009827000810B5014650
:1002F00000208B698A6A4FF0C07453B1B3F5005F78
:1003000015D072B1012A0CD0022A0AD0032A09D1D1
:1003100004E01AB1012A06D0022A03D1C96AC90130
:1003200000D5012010BDC96AA142FAD010BD002A33
:10033000F7D0012AF2D0022AF3D0032AF3D010BD5D
:1003400030B50468256825F480252560046863605D
:100350008368402B036803D099600068C26030BD99
:100360009A600068C16030BD704772B6FEE7000059
:1003700051B18200A2F1C042126842F00103820032
:10038000A2F1C042136009E08200A2F1C0421268EB
:10039000034B1A408300A3F1C0431A60704700006A
:1003A000FEFF0F00D0E901121143C2681143026938
:1003B00011434269114382691143C2691143026AC0
:1003C0001143426A1143826A1143C26A1143026BAC
:1003D000114302689200A2F1C042116081680829AD
:1003E0000BD101688900A1F1C041096841F04002C8
:1003F00001688900A1F1C0410A60416B0968426B44
:10040000526841EA0211426B926841EA0221426B52
:10041000928941EA0241426B128A41EA0251426BDF
:10042000127D41EA0261426B926911430268521CDB
:100430009200A2F1C0421160C16AB1F5804F1BD198
:10044000816B0968826B526841EA0211826B926883
:1004500041EA0221826B128A41EA0251826B127DCB
:1004600041EA0261826B9269114302689200A2F133
:10047000C042C2F8041107E06FF0704201688900C1
:10048000A1F1C041C1F804217047F0B50A4600212E
:100490000023002400BF3DE0012505FA01F31568A3
:1004A00005EA03049C4234D105684F000326BE4090
:1004B000B543056015794E00B540066835430560C3
:1004C0001579012D02D01579022D16D185684F00BE
:1004D0000326BE40B543856055794E00B540866819
:1004E00035438560456801268E40B54345604568C3
:1004F00096798E40B6B235434560C5684F000326F5
:10050000BE40B543C560D5794E00B540C668354399
:10051000C560491C1029BFD3F0BDF0B500230024ED
:100520004D07ED0E02FA05F3CE1000F1200555F847
:1005300026504E07F70E0F26BE40B543CF1000F1F0
:10054000200646F82750CE1000F1200555F8265019
:1005500045EA0304CE1000F1200545F82640F0BD21
:10056000418370470183704790F83510022903D00A
:100570008021416501207047052180F83510006811
:10058000016821F00101016000207047406D704753
:1005900090F83500704700002DE9F84304464FF00D
:1005A0000009CDF8009063484FF41651A56D00681E
:1005B000B0FBF1F72E6894F85C10082000FA01F106
:1005C00031420FD021680A6852070BD50A6822F021
:1005D00004020A6094F85C108840A860606D40F0E6
:1005E0000100606594F85C104FF0010808FA01F012
:1005F000304208D021684969090604D5A860606DB9
:1006000040F00200606594F85C100420884030429D
:1006100008D021680968890704D5A860606D40F09A
:100620000400606594F85C1010208840304218D0B7
:1006300021680968090714D5A86020680168490382
:1006400004D50068000308D5A16C07E00168C9055E
:1006500003D4016821F008010160216C09B1204632
:10066000884794F85C1020208840304231D02168BF
:100670000968C9062DD5A86094F8350005282068BA
:10068000016806D0490347D5006800031DD4616C9A
:100690001CE021F0160101602068416921F0800111
:1006A0004161206C08B9A06C20B12068016821F07C
:1006B0000801016094F85C103F208840A86084F82D
:1006C000349084F83580216D1FE0E16B09B120463C
:1006D0008847606D00282BD0606DC00714D00520BE
:1006E00084F835002068016821F00101016000985C
:1006F000401C0090B84203D820680068C007F6D1BB
:1007000084F8349084F83580E16C002910D001B071
:100710002046BDE8F04308470168C905D5D4016803
:1007200021F01001016084F8349084F83580CCE722
:10073000BDE8F883100000202DE9F041044600F0E8
:100740007FF906465CB1002584F83450022084F815
:1007500035002068016821F0010101600DE00120F1
:10076000BDE8F08100F06CF9801B052805D9202038
:100770006065032084F83500F2E720680068C00750
:10078000F0D12268116820480140D4E901031843E0
:10079000D4E903363343184363691843A369184304
:1007A000E3691843236A18430843616A042903D1A3
:1007B000D4E90B1319430843106020684069666A46
:1007C00020F0070130460E43012704280CD1A06A0F
:1007D0000643E06A40B12046FFF788FD20B1402083
:1007E000606584F83570BAE7206846612046FFF7F7
:1007F00069FD94F85C203F2191408160656584F833
:1008000035700020ACE700003F8010F02DE9F0418A
:100810000446866D90F83400002501280DD0012093
:1008200084F8340094F835700020012F07D084F844
:10083000340002252846BDE8F0810220FBE70227AC
:1008400084F8357060652046FFF77AFD94F85C10F7
:100850003F208840B0602068016841F016010160C7
:10086000206C20B12068016841F008010160206817
:10087000016841F001010160DCE700002DE9F84F5B
:1008800000224FF0010803254FF00F0E0B6808FA05
:1008900002F42340A3426ED14E68012E05D0022EF1
:1008A00003D0112E01D0122E12D186684FEA420CCD
:1008B00005FA0CF7BE43CF6807FA0CF73743876099
:1008C0004668A6430C79C4F3001494403443446052
:1008D000C668570005FA07FC8C6826EA0C06BC407F
:1008E0003443C4604C68022C01D0122C13D1D408BC
:1008F00000EB8404A346D4F8209054074FEAD46A4E
:100900000EFA0AF629EA06090E6906FA0AF646EA16
:100910000906CBF8206006680C7926EA0C0604F07C
:100920000304BC40344304604C68E40065D5364C95
:10093000266846F480462660246822F0030604F404
:1009400080440094314C3444A446D4F808489607B7
:10095000370F0EFA07F6B4432D4EB04201D10026F0
:1009600024E02C4EB04201D101261FE02A4EB042B5
:1009700002D102261AE040E0284EB04201D10326FF
:1009800014E0274EB04201D104260FE0254EB042BC
:1009900001D105260AE0244EB04201D1062605E029
:1009A000224EB04201D1072600E00826BE40264371
:1009B000CCF808681E4E34684F689C43FF0300D58E
:1009C0001C4334601A4C241D26684F689E43BF03A5
:1009D00000D51E432660164E083634684F689C4387
:1009E000FF0200D51C433460114E0C3634684F684A
:1009F0009C43BF0200D51C433460521C102AFFF4F4
:100A000045AFBDE8F88F0000443802400030014097
:100A1000000002400004024000080240000C0240B6
:100A2000001002400014024000180240001C024066
:100A3000003C01400AB1816170470904FBE70000F6
:100A4000014880687047000004000020704770472C
:100A50002DE9F041026800245168C76A90F83E50C1
:100A600090F83D60102D1CD0402D1AD0036C002B47
:100A70007ED053694FF02805DB439F0779D4CF43DD
:100A8000BF0576D4016C01B1946990F83D30002126
:100A90009D430B466ED0C91E516180F83C30BDE8C5
:100AA000F081946953694FF42A0CDB435FEAC37EFB
:100AB0004FF02A4604D06745F1D0B742EFD010E09E
:100AC000CF43BF050DD4C16A614501D1012103E0C7
:100AD000C16AB14201D10821C162BDE8F04101F013
:100AE000C1B91E0716D4CE43B60513D4416CC9B2A2
:100AF0001161416B11B9826B002AD0D0C96B19B951
:100B0000816BC96B0029CAD00068416841F400615B
:100B10004160C4E79E0706D4CE43B60503D4BDE8C2
:100B2000F04101F013B9E443526864074FEA0252FE
:100B30001BD4002AB3DB1A0608D4CA43520505D4D5
:100B40005A0705D5BDE8F04101F0A4B85A07A6D46C
:100B5000C9438905A3D4102D03D0BDE8F04101F0AD
:100B6000C7B9BDE8F04101F05BB8002A97DB02E0AD
:100B700015E029E015E05A0608D4CA43520505D409
:100B80005A0705D5BDE8F04100F0D6BF5A0786D414
:100B9000C943890583D4BDE8F04100F063BF94697F
:100BA00067E7556825F480655560E243540700D532
:100BB0000121120601D5828900E0028B80F83C30C9
:100BC00092B2FFF744FF6AE7DC0606D4CC43A405E3
:100BD00003D4BDE8F04101F0DBB9212E27D0292E46
:100BE00025D05C0655D4CC43640552D45B0752D55E
:100BF00090F83D10438D002B8BD01269436A1A7018
:100C0000426A521C4262428D521E4285428D002A27
:100C1000D9D12A29D7D101684A6822F480624A6072
:100C20002221016380F83D5000F082F937E71C066D
:100C300023D4CC43640520D45B0720D590F83D1025
:100C4000438D002BBFD0436A1B781361426A521C4C
:100C50004262428D521E4285428D002AB3D129291B
:100C6000B1D101684A6822F480624A60212101639F
:100C700080F83D5000F09CF911E75B07A3D4C9430D
:100C80008905A0D4418D00299DD0416A0978116160
:100C90000AE05B0797D4C943890594D4418D0029A4
:100CA00091D01169426A1170416A491C4162418DBB
:100CB000491E4185F3E6704770B5040025D094F8CD
:100CC0003D00002520B984F83C50204600F0BEF8D5
:100CD000242084F83D002068016821F001010160B2
:100CE0002068016841F4004101602068016821F436
:100CF0000041016000F0FCFA4D4A6168914201D860
:100D00004C4900E04C49884201D2012070BD4B495A
:100D10002368B0FBF1F15E6826F03F060E435E608B
:100D20006368934206D94FF4967359434FF47A732C
:100D3000B1FBF3F12368491C1E6A26F03F063143DC
:100D400019626168914210D84900401EB0FBF1F26F
:100D5000521CC2F30B02042A01D2042022E0B0FB91
:100D6000F1F0401CC0F30B001CE0A268F2B301EBF1
:100D7000C10303EB0116431EB3FBF6F35B1C43F404
:100D800080431B0549D092B301EBC10202EB011174
:100D9000401EB0FBF1F0401CC0F30B0040F480405B
:100DA00040F400402168CA694CF6FF739A4310432F
:100DB000C861D4E9071001432068026822F0C0022C
:100DC00011430160D4E9030101432068826848F2BD
:100DD000FF339A4311438160D4E905010843216838
:100DE000CA6822F0FF021043C86001E00EE016E07E
:100DF0002068016841F0010101602564202084F829
:100E00003D00256384F83E50002070BD01EB410693
:100E1000431EB3FBF6F35B1CB3E70120C2E701EB13
:100E20004101401EB0FBF1F0401CC0F30B00B7E7DE
:100E3000A086010080841E0000093D0040420F0092
:100E40007047704770477047704700002DE9F041C8
:100E500086B0064614216846FFF7EAF92E49306845
:100E6000884256D12D480024016841F002010160FA
:100E70000068694600F002000590C0200090122032
:100E80000190012002900320039004200490244844
:100E9000FFF7F4FC21481030016841F400110160B3
:100EA0000068214D00F4001005901E482860470599
:100EB000C5E901744FF48068C5E903486C61AC6111
:100EC000EC612C6228466C62FFF736FC08B1FFF734
:100ED0004CFAB563AE631348144D9030E5E8020751
:100EE0004020A5E81101114845F81449AC61EC61B6
:100EF0002C626C62FFF720FC08B1FFF736FA7563CD
:100F0000002211461F20AE6300F026F91F2000F0DA
:100F100015F906B0BDE8F0810054004030380240B9
:100F2000000402401060024090010020F001002007
:100F30002DE9F0471C4E1D4C307848B970780B21D4
:100F4000B1EB101F02D10107490E6170102828D0A3
:100F500002221549A1F1540000F02CF83078402805
:100F60001DD100254FF0010A4FF6E079A04601247B
:100F70000AFA05F7305D384000D0484601F0FCF928
:100F800098F801000023284481B2A0B2012201F0A8
:100F90007BF9641C812CEDDB6D1C082DE7DBBDE8C3
:100FA000F0878122D5E7000090000020000000209B
:100FB0007047000070B5044690F83D0020285BD1D2
:100FC00061B15AB194F83C00012855D0012084F851
:100FD0003C0020680368DB0702D005E0012070BDFB
:100FE000036843F0010303602068036823F400638F
:100FF0000360222084F83D00202684F83E6000250E
:10100000256461626285608D20851C48E062A16B69
:101010001B48C863A16B1B48C864A06B0564A06B28
:101020004564A06B8564A06B05652168238D103134
:10103000626AA06BFFF7EAFB58B184F83D6084F860
:101040003E5054F8400F40F0100044F80409257059
:10105000C4E72068016841F48061016084F83C5075
:101060002068416841F4407141602068416841F462
:1010700000614160002070BD022070BD0000FFFFD4
:1010800001180008C117000802488168027811445D
:1010900081607047040000200B4810B5016841F4DE
:1010A00000710160016841F480610160016841F4F0
:1010B00080710160032000F06FF8002000F006F856
:1010C00000F024F8002010BD003C024070B50D4D2A
:1010D00004464FF47A712878B1FBF0F00A490968A8
:1010E000B1FBF0F000F0F2FA48B9102C07D2002260
:1010F0002146501E00F030F800206C6070BD0120C9
:1011000070BD000004000020100000200A4808B54F
:10111000016841F480410160006800F48040009063
:101120000548001F016841F080510160006800F02F
:101130008050009008BD000044380240002809DBC0
:1011400000F01F02012191404009800000F1E020E1
:10115000C0F8001170470000F0B40E4B1B680C463D
:10116000C3F30223C3F10705042D00D90425191D7B
:10117000072901D2002300E0DB1E012606FA05F153
:10118000491E214099409E40761E16403143F0BCD6
:1011900001F08CBA0CED00E0064900F00702086887
:1011A0004FF6FF03184040EA0220034A104308604C
:1011B000704700000CED00E00000FA052DE9F04753
:1011C0000E46050065D0DFF81481D8F80000F7B2AC
:1011D00000F00F00B04207D288F80070D8F8000085
:1011E00000F00F00B04254D128683D4C810712D561
:1011F000400703D5206840F4E050206028780007BD
:1012000003D5206840F4604020602068A96820F081
:10121000F000084320602878C0072DD03049686866
:101220000839012812D0022813D0032811D00968E8
:10123000890700292DDA216821F00301014321608B
:10124000FFF7FEFB814641F2883A0EE00968890308
:10125000EFE709688901ECE7FFF7F2FBA0EB090172
:10126000514502D90320BDE8F0872068696800F085
:101270000C00B0EB810FEFD1D8F80010404601F020
:101280000F01B14207D90770006800F00F00B042AB
:1012900001D00120E7E72878400705D52068E968F4
:1012A00020F4E050084320602878000706D5206825
:1012B000296920F4604040EAC100206000F028F86D
:1012C0002168084AC1F30311515CC840064908600F
:1012D00006480068FFF7FAFE0020C4E7003C024021
:1012E00008380240A0270008100000200800002055
:1012F0000448054900680968044AC1F38221515C29
:10130000C84070471000002008380240B02700088D
:10131000154810B5006810F00C02144813D04110A5
:10132000042A0FD0082A0ED10F4C241F22682368EC
:1013300002F03F025B0207D52068C0F38810A0FBD3
:10134000010106E0084610BD2168C1F38811A1FB28
:1013500000010023FEF734FF2168C1F30141491C5D
:101360004900B0FBF1F010BD083802400024F40041
:101370002DE9F84F04006ED02078DFF83C93C007C9
:10138000A9F104054AD009F104000168C1F3810103
:10139000012908D00068C0F3810002280AD1D9F8D9
:1013A0000000400206D52868800337D56068002811
:1013B000E1D033E06068B0F5803F10D0B0F5A02FE9
:1013C000286810D020F480302860286820F480201D
:1013D00028606068A8B1FFF733FB06460DE0286877
:1013E00040F48030F4E740F480202860F7E700BF45
:1013F000FFF726FB801B642873D828688003F7D585
:101400000CE0FFF71DFB064605E000BFFFF718FBE9
:10141000801B6428F0D828688003F7D42078DFF890
:101420009C8280074FF0000A3ED5A348001D01684A
:1014300011F00C0F08D00068C0F3810002280BD116
:10144000D9F80000400207D42868800716D5E06864
:10145000012800D112E02BE1E068B8B10120C8F802
:101460000000FFF7EDFA064605E000BFFFF7E8FAD7
:10147000801B0228C0D828688007F7D52868216912
:1014800020F0F80040EAC10028600DE0C8F800A094
:10149000FFF7D6FA064604E0FFF7D2FA801B0228CF
:1014A0001FD828688007F7D42078000722D5824EFD
:1014B00083486169703671B101210160FFF7C0FA9C
:1014C000074604E0FFF7BCFAC01B022809D83068C1
:1014D0008007F7D50EE0C0F800A0FFF7B1FA074685
:1014E00005E082E0FFF7ACFAC01B02287DD8306827
:1014F0008007F7D42078400768D5DFF8BCB1002713
:101500000BF13C0BDBF80000C0000BD4DBF8001043
:1015100041F08051CBF80010DBF80000012700F00B
:1015200080500090674E3068C00510D4306840F499
:1015300080703060FFF784FA009005E0FFF780FAD2
:101540000099401A022850D83068C005F6D55A4E86
:10155000A0686C3601280FD00528306810D020F024
:1015600001003060306820F004003060A068B8B13D
:10157000FFF766FA00900FE0306840F00100F4E7F2
:1015800040F004003060F7E7FFF75AFA0099411A7B
:1015900041F28830814266D830688007F4D50EE089
:1015A000FFF74EFA009007E0FFF74AFA0099411A58
:1015B00041F28830814256D830688007F4D42FB188
:1015C000DBF8001021F08051CBF80010A069C8B3FF
:1015D0003949091D0968C1F3810102294AD002284D
:1015E000504607D0C8F8600000E03CE0FFF728FA5A
:1015F00004463BE04746C8F86000FFF721FA06467C
:1016000005E000BFFFF71CFA801B02282BD82868D2
:101610008001F7D4D4E907010843A16A2A4A49089E
:1016200002EB0141626A41EA8211084394F82C10EE
:1016300040EA0161C9F8001001203866FFF700FA9E
:10164000044606E036E000BFFFF7FAF9001B022867
:1016500009D828688001F7D52CE000BFFFF7F0F922
:10166000001B022802D90320BDE8F88F28688001FA
:10167000F4D41FE00128F7D0D9F80000E26900F4A3
:101680008001914214D1226A00F03F0191420FD1B2
:1016900047F6C071626A0140914209D1A26A00F422
:1016A0004031914204D1E16A00F07060884201D07B
:1016B0000120D9E70020D7E7043802400000474264
:1016C000800E4742007000400000FFFF10B5401E32
:1016D000B0F1807F01D3012010BD4FF0E0246061A4
:1016E0000F21601700F0E2FF0020A06107202061B9
:1016F000002010BDFEE700000148FFF7A9B9000077
:101700003C00002038B5806B002190F83D202B4B29
:1017100046F2A8141B68B3FBF4F3C3EBC30303EB5B
:10172000830300933BB15B1E009303681B689B051A
:1017300005D5009BF6E7036C43F020030364436B7D
:1017400003B1D963836B03B1D96303681C6824F4C4
:1017500080641C604185436B03B11965836B03B1E1
:10176000196503681C6824F001041C6090F83D4072
:101770002023602C0BD0282434EA02020FD080F8FA
:101780003D3080F83E1000BFFFF795FA38BD80F875
:101790003D3080F83E100164FFF758F938BD02680B
:1017A000136843F0010313600268136843F4806315
:1017B0001360016380F83D40E6E700001000002060
:1017C00070B5846B0025616B01B1CD63A16B01B174
:1017D000CD63FEF7DBFE022811D02068016821F4FA
:1017E000806101606585202084F83D0084F83E50CA
:1017F000206C40F0100020642046FFF75CFA70BDBA
:101800002DE9F041846B94F83D2094F83E50E16A54
:101810002068436823F440734360636B002003B186
:10182000D863A36B03B1D863212333EA02074FF0D7
:1018300022060CD036EA020701D1202D07D094F8F9
:101840003E20002A21D0628D012A20D024E0216888
:101850004D6825F400654D6060852820292A02D056
:101860002A2A07D00CE0236384F83D002046FFF7C6
:101870009FFB05E0266384F83D002046FFF758FBF8
:101880002068416841F440714160BDE8F081226800
:10189000136823F4806313602268536823F4407351
:1018A000536011F5803F06D0082904D0B1F12A4FCA
:1018B00001D0202904D121680A6842F400720A602C
:1018C00021684A6822F480524A6021684A6822F4FA
:1018D00000624A606085216C19B12046FFF7EBF980
:1018E000D3E7202184F83D1094F83E1084F83E00A0
:1018F000402905D0122020632046FFF7A2FAC4E752
:1019000020632046FFF79FFABFE7000070B504464A
:1019100090F83D0094F83E10102901D0402906D1DE
:10192000222804D121680A6822F400620A60282172
:1019300031EA00024FF000054FF0200626D0216862
:101940004968090505D4602803D084F83D6084F80F
:101950003E50256320684168090537D5416821F468
:1019600000614160606B90F835203C49012A11D03C
:101970000165606BFEF7F8FD38B32068016821F05F
:101980000101016084F83D60606B1CE0256384F810
:101990003D10DFE7A06B0165A06BFEF7E5FDA0B190
:1019A00020684169C943490605D40069616A087025
:1019B000606A401C60622068016821F001010160DA
:1019C00084F83D60A06B016D884710E094F83D10ED
:1019D000602910D04169C943490605D40069616A8C
:1019E0000870606A401C60622046FFF764F9206C52
:1019F000C1071CD115E084F83D6025644169C943E5
:101A0000490605D40069616A0870606A401C60621A
:101A10002068016821F0010101602046FFF716F8F7
:101A2000E5E7810703D4410701D4000704D5206806
:101A3000416821F4E061416094F83D00216C490760
:101A40000BD5282809D10648E062256384F83D605B
:101A500084F83E502046FFF7F3F970BD05170008E3
:101A60000000FFFF10B5C26A438D0168042B06D049
:101A7000438D032B08D0438D022B1DD012E04A6802
:101A800022F480624A600CE04B6823F480634B6070
:101A9000042A06D0022A04D001680A6822F480626F
:101AA0000A6001680969426A1170416A491C416211
:101AB000418D491E418510BD012A30D0102A2ED0FB
:101AC000042A30D0022A2ED00A6842F400720A603A
:101AD00001680969426A1170416A491C4162428D7C
:101AE000521E4285026812690A70416A491C4162AD
:101AF000418D491E418501684A6822F440724A605E
:101B0000202180F83D1090F83E200021402A80F8E6
:101B10003E100CD012210163FFF793F910BD0A6843
:101B200022F48062D3E70A6842F48062CFE701635F
:101B3000FFF789F910BD000038B590F83D10222953
:101B400014D1418D032912D901680969426A1170C3
:101B5000416A491C4162418D491E4185418D0329DD
:101B600004D10068416821F48061416038BDC26AD7
:101B7000022AFBD0012901D00029F7D1274946F2DA
:101B8000A81300220968B1FBF3F101EB8101009178
:101B900001682023009C641E009422D00C68A405D8
:101BA000F8D40C6824F480640C6001684C6824F458
:101BB000E0644C6001680969446A2170416A491C0B
:101BC0004162418D491E418580F83D3090F83E10BC
:101BD00080F83E2040291DD012210163FFF731F922
:101BE00038BD046C44F0200404644C6824F4E064C0
:101BF0004C6001680969446A2170416A491C41626C
:101C0000418D491E418580F83D3080F83E20FFF728
:101C100052F838BD0263FFF716F938BD10000020F6
:101C200010B5C16A90F83D20212A0BD1428D52B1E6
:101C3000416A026809781161416A491C4162418D1B
:101C4000491E418510BD00222023082910D02029DB
:101C50000ED011F5803F0BD001684C6824F4E0648D
:101C60004C601121016380F83E2080F83D300EE089
:101C700001684C6824F4E0644C6001680C6844F42A
:101C800000740C60026380F83D3080F83E20FFF75E
:101C9000D9F810BD10B590F83D1090F83E30C26AEA
:101CA000048DB4B1212903D0402B11D122290FD1A9
:101CB000418DE1B390F83E10402942D0416A02685C
:101CC00009781161416A491C4162418D491E418573
:101CD00010BD2129E8D120230021082A13D0202A71
:101CE00011D012F5803F0ED00268546824F4E064ED
:101CF00054601122026380F83E1080F83D3000BF2E
:101D0000FFF7A0F810BD0268546824F4E064546042
:101D10000268146844F400741460016380F83D3074
:101D200090F83E2080F83E10402AE9D100E002E021
:101D3000FFF78AF810BD0068416821F480614160B6
:101D400010BDBDE8104000F0D3B8000078B590F8A1
:101D50003E50C26A036B90F83D6000240168222E59
:101D60007AD1066D0EB9402D76D0056D1DB9056985
:101D7000B5F5404F09D0458D05B3468D384D012E40
:101D80000ED0438D022B3AD05DE04A698A690092F9
:101D90000A6842F480720A60016D491C016578BDD1
:101DA000AA4213D10A6822F480620A6001684A6874
:101DB000120503D50A6822F4806216E04A698A692E
:101DC00000920A6842F400720A6039E0082A10D0D2
:101DD000202A0ED0122B0AD0042A03D0022A01D0C6
:101DE000102AE7D10A6842F480620A6024E0012ADE
:101DF000E0D00A6822F480620A600168DEE7042A03
:101E000021D0022A1FD0102A1DD00B6823F4806332
:101E10000B6001680B6843F400630B6001684B685A
:101E20001B0509D5AA4212D0012A10D0082A0ED0CB
:101E3000102A0CD0202A0AD001684A6989690091C9
:101E4000046578BD08E00B6843F48063E5E74A6801
:101E500042F480524A60EFE7486988690090F0E7F1
:101E60000000FFFF90F83E10402910D00169B1F545
:101E7000804F19D0016DA9B3016D012910D1416CBA
:101E80005FF0F10201F4407142EAD11106E0016D08
:101E90000029416C05D0C9B241F00101006801611F
:101EA000704701F0FE01F9E790F83D102129416CDF
:101EB00009D0C9B241F0010102681161416B29B139
:101EC000C96B49B902E001F0FE01F5E7816B002919
:101ED000E6D0C96B0029E3D00068416841F4006195
:101EE00041607047FFE7416CF02201F44071CBE79D
:101EF00010B590F83D10026D22B3026D012A2FD06B
:101F0000026D022A1DD1222931D0428D0AB1212928
:101F100033D0428D002A14D1212912D101684A6898
:101F200022F4E0624A6001680A6842F400720A60C2
:101F300000210163202280F83D2080F83E10FEF74A
:101F400083FF10BDC16C0129816C02D0C1F3072150
:101F500008E00268C9B21161016D891C016510BDFC
:101F6000816CC9B202681161016D491CF6E7006815
:101F7000016841F48071016010BD416A026809780E
:101F80001161416A491C4162418D491E418510BD64
:101F9000F8B590F83D6004460068416821F4E061BE
:101FA00041602068002541690091016841F001010C
:101FB00001602068016821F4806101602068416847
:101FC000090520D5474F222E48D02A2E46D0616BD6
:101FD000096849686185618D19B1216C41F004017E
:101FE0002164416821F400614160606BFEF7D0FA22
:101FF000012808D0606B0765606BFEF7B5FA10B179
:10200000606B016D8847608D08B320684169C943E2
:10201000490708D40069616A0870606A401C606200
:10202000608D401E608520684169C943490608D417
:102030000069616A0870606A401C6062608D401EC1
:102040006085608D18B1206C40F004002064206C25
:1020500000B32046BDE8F840FFF758BCA16B096803
:1020600049686185618D19B1216C41F004012164D9
:10207000416821F400614160A06BFEF789FA0128F4
:10208000C1D0A06B0765A06BFEF76EFA0028BAD02E
:10209000A06BB6E72A2E06D12563282084F83D00E0
:1020A0002046FEF745FF94F83D10202028290DD04A
:1020B000216B222901D0222E07D1256384F83D000F
:1020C00084F83E502046FEF733FFF8BD0649E16232
:1020D000256384F83D0084F83E502046FEF7B0FEAC
:1020E000F8BD0000051700080000FFFF30B50446EA
:1020F00000250021084600F02DF900F04BF900BF43
:1021000002E0034804806D1C02488542F9D330BDCB
:1021100000001060003B01001CB501213A2000F0D6
:1021200083F94CF23370009002208DF804008DF892
:10213000050000208DF806008DF80700694650481C
:10214000FEF7A3F90C2200214D48FEF7E6F90C2218
:1021500001214B48FEF7E1F90C2204214848FEF723
:10216000DCF90C2205214648FEF7D7F90C2208219C
:102170004348FEF7D2F90C2209214148FEF7CDF978
:102180000C220A213E48FEF7C8F90C220E213C48D9
:10219000FEF7C3F90C220F213948FEF7BEF94FF6BE
:1021A0008070009069463748FEF76FF90C220721CE
:1021B0003448FEF7B2F90C2208213248FEF7ADF997
:1021C0000C2209212F48FEF7A8F90C220A212D48DC
:1021D000FEF7A3F90C220B212A48FEF79EF90C22E8
:1021E00011462848FEF799F90C220D212548FEF7E3
:1021F00094F90C220E212348FEF78FF90C220F21AF
:102200002048FEF78AF90820009069461D48FEF72D
:102210003CF90C2203211B48FEF77FF98020009037
:1022200069461748FEF731F90C220A211448FEF7D7
:1022300074F90820009001208DF8040000208DF82A
:1022400005008DF806008DF8070069460C48FEF77A
:102250001CF94FF40050009001208DF804008DF817
:10226000050000208DF806008DF807006946044837
:10227000FEF70BF94FF400510148FEF773F91CBD4E
:10228000000C0240001002402DE9F04180460E464D
:1022900015461F4600243146404600F05BF85FB902
:1022A00000F078F800BF04E00D48008800F06CF8FA
:1022B000641CAC42F8D310E000240CE000F06AF893
:1022C0000748008800F060F8701C86B2314640462E
:1022D00000F040F8641CAC42F0D3BDE8F08100008F
:1022E0003800002000B597B00121084600F0ACF896
:1022F000012001900020029009200390002004900A
:10230000059006900790089009900A9010200B9075
:1023100000200C900D900E900F9010904FF4805074
:102320001190002012901390149001A8159016900F
:1023300008A8FEF737F801210020FEF719F817B0BA
:1023400000BD000001B5BDF800000149088008BDCE
:102350003A00002010B503460C4619464E2000F006
:102360001FF821464F2000F01BF810BD01490860FE
:10237000704700003400002001B5BDF8000001499D
:10238000088008BD3800002001490880704700001F
:102390000000106022204FF0C0410880704700000C
:1023A0004FF0C0421080014A118070470000106059
:1023B00070B586B014216846FDF73AFF1648002430
:1023C000016841F080010160016801F08001059120
:1023D000016841F008010160016801F00801059100
:1023E000016841F00201016000680C4E00F002003B
:1023F0004FF470450590002229463046FEF71AFB3F
:1024000001200095CDE90104694630460394FEF7AA
:1024100035FA06B070BD000030380240000C0240B2
:10242000FEE7FEE77047000029B1064A1268024342
:10243000044B1A6004E0034A12688243014B1A609D
:10244000704700003038024029B1064A1268024342
:10245000044B1A6004E0034A12688243014B1A607D
:10246000704700003838024010B5FFF755FEFFF7FF
:1024700039FF052000F009F908215148FEF770F8EE
:102480000A2000F002F908214D48FEF76BF80121FF
:102490001020FFF785FFB2211E20FFF781FF0621E4
:1024A0002820FFF77DFF01210020FFF779FF43F28D
:1024B000EF010120FFF774FF4FF4C0610220FFF726
:1024C0006FFF00211020FFF76BFF052000F0DDF803
:1024D00046F630011120FFF763FF40F699111220F4
:1024E000FFF75EFF4FF460512620FFF759FF3321BD
:1024F0000720FFF755FF05210C20FFF751FF0021B2
:102500003020FFF74DFF40F203313120FFF748FF45
:1025100040F207413220FFF743FF40F20131332000
:10252000FFF73EFF40F201313420FFF739FF40F260
:1025300003413520FFF734FF40F207713620FFF7E3
:102540002FFF4FF480613720FFF72AFF4FF42061FF
:102550003A20FFF725FF4FF480513B20FFF720FF83
:102560000A210D20FFF71CFF4FF438510E20FFF712
:1025700017FF4FF47B414420FFF712FF0021452055
:10258000FFF70EFF40F23F114620FFF709FF002141
:102590004E20FFF705FF00214F20FFF701FF00212C
:1025A0002220FFF7FDFE002403E00020FFF7ECFEF1
:1025B000641C04488442F8D30348FFF7D7FE10BDDB
:1025C000000C0240003B0100140000207047FEF7A1
:1025D0005BBD000030B593B030216846FDF728FEA2
:1025E00014210CA8FDF724FE1E480025016841F0C7
:1025F00080510160006800F0805011901A48016815
:1026000041F4804101600068022400F48040119090
:1026100001200090000401908001CDE906400820CF
:1026200008904FF4A870CDE9090404200B90684687
:10263000FEF79EFE08B172B6FEE70CA90F2081E8F6
:1026400031004FF4A0500F904FF4805010900521AE
:102650000CA8FEF7B3FD002801D072B6FEE713B058
:1026600030BD00004038024000700040054801685D
:1026700041F47001016003494FF000608039086047
:102680007047000088ED00E0FEE701B581B0002052
:10269000009042F2107101984843009002E00098C7
:1026A000401E009000980028F9D10CBD0907090EC2
:1026B000002804DB00F1E02080F80014704700F0EF
:1026C0000F0000F1E02080F8141D704702E008C8F8
:1026D000121F08C1002AFAD170477047002001E09C
:1026E00001C1121F002AFBD17047000008B5FEF798
:1026F000D3FCFFF76FFFFFF75BFE22480024016861
:1027000041F4001101600068224600F400100090BE
:1027100021460B20FEF720FD0B20FEF70FFD0022C7
:1027200011461120FEF718FD1120FEF707FD17488E
:10273000154901601649C0E901147821C1604FF4C0
:102740008041C0E904148461C4610462FEF7B4FAF4
:1027500008B172B6FEE7FFF787FE0720FFF7F2FD2C
:102760004FF6E070FFF708FE0A48FFF7FFFD07206D
:10277000FFF7BCFC0549022254310448FEF71AFC5D
:10278000FEE7000030380240005400403C000020CA
:10279000801A0600240000200006101600061016FD
:1027A0000000000000000000010203040607080901
:1027B000000000000102030400000000000000000F
:1027C0000000000000000000000000000000000009
:1027D00000000000000000000000000000000000F9
:1027E0000000000000000000000080018001800166
:1027F00080018001800180018001800180018001D1
:1028000080018001000000008001800100000000C4
:10281000000000000000000000000000CC00CC0020
:10282000CC00CC00CC00CC00000000000000000078
:102830000000000000000000000000000000000098
:102840000000000000000000000000000000000088
:1028500000000000600C600C600C30063006FE1FAB
:10286000FE1F300638071803FE1FFE1F180318034B
:102870008C018C018C01000000008000E003F80F47
:102880009C0E8C1C8C188C009800F801E007800EC0
:10289000801C8C188C189C18B80CF00FE00380007A
:1028A00080000000000000000000000000000E1882
:1028B0001B0C110C11061106110311039B018E0153
:1028C000C038C06C60446044304430441844186CD4
:1028D0000C380000000000000000E001F0033807A1
:1028E000180618063003F001F000F8009C310E3392
:1028F000061E061C061C063FFC73F02100000000AB
:102900000000000000000000000000000C000C00AF
:102910000C000C000C000C00000000000000000087
:1029200000000000000000000000000000000000A7
:102930000000000000000000000000020003800111
:10294000C000C00060006000300030003000300087
:10295000300030003000300060006000C000C00077
:102960008001000300020000000020006000C000A1
:102970008001800100030003000600060006000637
:102980000006000600060006000300038001800127
:10299000C0006000200000000000000000000000F7
:1029A00000000000C000C000D806F807E0013003B6
:1029B00038070000000000000000000000000000D8
:1029C0000000000000000000000000000000000007
:1029D0000000000080018001800180018001FC3F37
:1029E000FC3F800180018001800180010000000027
:1029F00000000000000000000000000000000000D7
:102A000000000000000000000000000000000000C6
:102A100000000000000000000000800180010001B3
:102A20000001800000000000000000000000000025
:102A30000000000000000000000000000000000096
:102A4000E007E007000000000000000000000000B8
:102A50000000000000000000000000000000000076
:102A60000000000000000000000000000000000066
:102A700000000000000000000000C000C0000000D6
:102A800000000000000000000000000C000C000628
:102A9000000600060003000300038003800180019C
:102AA0008001C000C000C0006000600000000000A5
:102AB00000000000000000000000E003F007380EF6
:102AC000180C0C180C180C180C180C180C180C18E6
:102AD0000C180C18180C380EF007E003000000006A
:102AE0000000000000000000000000018001C001A3
:102AF000F00198018801800180018001800180013E
:102B000080018001800180018001800100000000BF
:102B100000000000000000000000E003F80F180CA7
:102B20000C180C1800180018000C00060003800197
:102B3000C000600030001800FC1FFC1F00000000F7
:102B400000000000000000000000E001F807180E7F
:102B50000C0C0C0C000C0006C003C007000C001885
:102B600000180C180C18180CF807E00300000000FF
:102B700000000000000000000000000C000E000F2C
:102B8000000F800DC00C600C600C300C180C0C0C8D
:102B9000FC3FFC3F000C000C000C000C000000008F
:102BA00000000000000000000000F80FF80F1800FF
:102BB00018000C00EC03FC071C0E001C0018001889
:102BC00000180C181C0C180EF807E0030000000099
:102BD00000000000000000000000C007F00F381CDB
:102BE000181818000C00CC03EC0F3C0E1C1C0C1821
:102BF0000C180C18181C380EF007E0030000000039
:102C000000000000000000000000FC1FFC1F000C82
:102C100000060006000380038001C001C000E00040
:102C200060006000700030003000300000000000E4
:102C300000000000000000000000E003F007380E74
:102C4000180C180C180C3806F007F007180C0C18A4
:102C50000C180C180C18380CF80FE00300000000DA
:102C600000000000000000000000E003F007380E44
:102C70001C0C0C180C180C181C1C381EF81BE01926
:102C80000018000C000C1C0EF807F00100000000FA
:102C90000000000000000000000000000000000034
:102CA0000000000080018001000000000000000022
:102CB0000000000000000000800180010000000012
:102CC0000000000000000000000000000000000004
:102CD00000000000800180010000000000000000F2
:102CE00000000000000000008001800100010001E0
:102CF0008000000000000000000000000000000054
:102D000000000000000000000010001C800FE00325
:102D1000F8001800F800E003800F001C001000000D
:102D200000000000000000000000000000000000A3
:102D30000000000000000000F81F0000000000007C
:102D4000F81F00000000000000000000000000006C
:102D50000000000000000000000000000000000073
:102D6000000000000000000008003800F001C0076B
:102D7000001F0018001FC007F00138000800000005
:102D800000000000000000000000E003F80F180C35
:102D90000C180C180018000C000600038001C0007D
:102DA000C000C00000000000C000C0000000000023
:102DB000000000000000000000000000E0071818FC
:102DC0000420C229224A1144094409440944092221
:102DD0001113E20C024004201818E0070000000064
:102DE0000000000000000000000080038003C00617
:102DF000C006C006600C600C301830183018F83F60
:102E0000F83F1C700C600C6006C006C0000000009B
:102E100000000000000000000000FC03FC0F0C0C90
:102E20000C180C180C180C0CFC07FC0F0C180C30B0
:102E30000C300C300C300C18FC1FFC07000000009C
:102E400000000000000000000000C007F01F38383C
:102E50001C300C7006600600060006000600060026
:102E6000060006600C701C30F01FE0070000000038
:102E700000000000000000000000FE03FE0F060E30
:102E800006180618063006300630063006300630C2
:102E9000063006180618060EFE0FFE03000000009E
:102EA00000000000000000000000FC3FFC3F0C00A0
:102EB0000C000C000C000C00FC1FFC1F0C000C0094
:102EC0000C000C000C000C00FC3FFC3F000000005C
:102ED00000000000000000000000F83FF83F18006C
:102EE0001800180018001800F81FF81F1800180024
:102EF0001800180018001800180018000000000042
:102F000000000000000000000000E00FF83F3C78E7
:102F10000E6006E007C00300030003FE03FE03C0CB
:102F200007C006C00EC03CF0F83FE00F00000000F4
:102F3000000000000000000000000C300C300C30DD
:102F40000C300C300C300C30FC3FFC3F0C300C30A3
:102F50000C300C300C300C300C300C300000000009
:102F600000000000000000000000800180018001DE
:102F70008001800180018001800180018001800149
:102F8000800180018001800180018001000000003B
:102F9000000000000000000000000006000600061F
:102FA00000060006000600060006000600060006F1
:102FB0000006180618063807F003E00100000000BC
:102FC0000000000000000000000006300618060C9B
:102FD000060606038601C60066007600DE008E0146
:102FE00006030606060C0618063006600000000000
:102FF0000000000000000000000018001800180089
:103000001800180018001800180018001800180000
:103010001800180018001800F81FF81F0000000022
:10302000000000000000000000000EE01EF01EF096
:103030001EF036D836D836D836D866CC66CC66CCB4
:10304000C6C6C6C6C6C6C6C686C386C300000000BE
:10305000000000000000000000000C301C303C307C
:103060003C306C306C30CC30CC308C310C330C3389
:103070000C360C360C3C0C3C0C380C3000000000BC
:1030800000000000000000000000E007F81F1C38EE
:103090000E70066003C003C003C003C003C003C0BA
:1030A00003C006600E701C38F81FE0070000000027
:1030B00000000000000000000000FC0FFC1F0C38A6
:1030C0000C300C300C300C300C18FC1FFC070C00C2
:1030D0000C000C000C000C000C000C0000000000A8
:1030E00000000000000000000000E007F81F1C388E
:1030F0000E70066003E003C003C003C003C003C03A
:1031000007E006630E3F1C3CF83FE0F700C00000FC
:1031100000000000000000000000FE0FFE1F063847
:103120000630063006300638FE1FFE070603060688
:10313000060C06180618063006300660000000006F
:1031400000000000000000000000E003F80F1C0C6D
:103150000C180C180C001C00F803E00F001E0038BF
:10316000063006300E301C1CF80FE007000000008F
:1031700000000000000000000000FE7FFE7F8001D4
:103180008001800180018001800180018001800137
:103190008001800180018001800180010000000029
:1031A000000000000000000000000C300C300C306B
:1031B0000C300C300C300C300C300C300C300C302F
:1031C0000C300C300C301818F81FE007000000001D
:1031D0000000000000000000000003600630063020
:1031E00006300C180C180C18180C180C380E300679
:1031F0003006700760036003C001C00100000000DA
:10320000000000000000000000000360C361C36113
:10321000C3616633663366336633663366336C1B6D
:103220006C1B6C1B2C1A3C1E380E380E0000000064
:10323000000000000000000000000FE00C701830DB
:103240003018700C600EC00780038003C003E006D6
:10325000700C301C18180C300E6007E000000000E5
:103260000000000000000000000003C006600C30F9
:103270001C383818300C6006E007C003800180015C
:103280008001800180018001800180010000000038
:1032900000000000000000000000FC7FFC7F0060D8
:1032A00000300018000C000600038001C000600020
:1032B000300018000C000600FE7FFE7F00000000BA
:1032C00000000000000000000000E003E0036000D8
:1032D00060006000600060006000600060006000EE
:1032E00060006000600060006000600060006000DE
:1032F0006000E003E00300000000300030006000E8
:1033000060006000C000C000C000C00180018001FA
:103310008001000300030003000600060000000017
:1033200000000000000000000000E003E0030003D4
:103330000003000300030003000300030003000375
:103340000003000300030003000300030003000365
:103350000003E003E003000000000000C001C00122
:1033600060036003600330063006180C180C000080
:10337000000000000000000000000000000000004D
:10338000000000000000000000000000000000003D
:10339000000000000000000000000000000000002D
:1033A00000000000000000000000FFFFFFFF000021
:1033B000000000000000000000000C000C000C00E9
:1033C0000C000C000C0000000000000000000000D9
:1033D00000000000000000000000000000000000ED
:1033E00000000000000000000000000000000000DD
:1033F00000000000F003F8071C0C0C0C000FF00F8D
:10340000F80C0C0C0C0C1C0FF80FF018000000004E
:103410000000000000000000000018001800180064
:1034200018001800D803F80F380C181818181818B6
:10343000181818181818380CF80FD80300000000D6
:10344000000000000000000000000000000000007C
:1034500000000000C003F007300E180C1800180020
:1034600018001800180C300EF007C0030000000010
:103470000000000000000000000000180018001804
:1034800000180018C01BF01F301C18181818181846
:10349000181818181818301CF01FC01B0000000066
:1034A000000000000000000000000000000000001C
:1034B00000000000C003F00F300C1818F81FF81FB0
:1034C000180018003818301CF00FC007000000006A
:1034D00000000000000000000000800FC00FC000CE
:1034E000C000C000F007F007C000C000C000C0006E
:1034F000C000C000C000C000C000C000000000004C
:1035000000000000000000000000000000000000BB
:1035100000000000E00DF80F180E0C0C0C0C0C0C49
:103520000C0C0C0C0C0C180EF80FE00D000C0C0C15
:103530001C06F807F0010000000018001800180031
:1035400018001800D807F80F381C18181818181881
:10355000181818181818181818181818000000004B
:1035600000000000000000000000C000C0000000DB
:1035700000000000C000C000C000C000C000C000CB
:10358000C000C000C000C000C000C00000000000BB
:1035900000000000000000000000C000C0000000AB
:1035A00000000000C000C000C000C000C000C0009B
:1035B000C000C000C000C000C000C000C000C0000B
:1035C000C000F8007800000000000C000C000C00A7
:1035D0000C000C000C0C0C060C038C01CC006C00D5
:1035E000FC009C018C030C030C060C0C000000007A
:1035F00000000000000000000000C000C000C0008B
:10360000C000C000C000C000C000C000C000C000BA
:10361000C000C000C000C000C000C000000000002A
:10362000000000000000000000000000000000009A
:10363000000000007C3CFF7EC7E383C183C183C1DF
:1036400083C183C183C183C183C183C100000000E2
:10365000000000000000000000000000000000006A
:10366000000000009807F80F381C181818181818D0
:10367000181818181818181818181818000000002A
:10368000000000000000000000000000000000003A
:1036900000000000C003F00F300C1818181818189C
:1036A000181818181818300CF00FC003000000008C
:1036B000000000000000000000000000000000000A
:1036C00000000000D803F80F380C18181818181844
:1036D000181818181818380CF80FD8031800180004
:1036E0001800180018000000000000000000000092
:1036F00000000000C01BF01F301C18181818181804
:10370000181818181818301CF01FC01B00180018C3
:103710000018001800180000000000000000000061
:1037200000000000B007F0037000300030003000EF
:103730003000300030003000300030000000000069
:103740000000000000000000000000000000000079
:1037500000000000E003F003380E180C3800F003FE
:10376000C007000C180C380EF007E0030000000042
:103770000000000000000000000000008000C00009
:10378000C000C000F007F007C000C000C000C000CB
:10379000C000C000C000C000C007800700000000DB
:1037A0000000000000000000000000000000000019
:1037B00000000000181818181818181818181818E9
:1037C000181818181818381CF01FE019000000000D
:1037D00000000000000000000000000000000000E9
:1037E000000000000C18180C180C180C30063006DD
:1037F0003006600360036003C001C00100000000E8
:1038000000000000000000000000000000000000B8
:1038100000000000C141C141C3616363636363632E
:103820003636363636361C1C1C1C1C1C00000000AC
:103830000000000000000000000000000000000088
:10384000000000001C38381C300C60066003600368
:10385000600360036006300C381C1C380000000058
:103860000000000000000000000000000000000058
:10387000000000001830301830187018600C600C10
:10388000E00CC006C0068003800380038001800135
:10389000C001F00070000000000000000000000007
:1038A00000000000FC1FFC1F000C0006000380014C
:1038B000C000600030001800FC1FFC1F000000006A
:1038C0000000000000000000000000038001C000B4
:1038D000C000C000C000C000C00060006000300038
:1038E00060004000C000C000C000C000C000C000B8
:1038F00080010003000000000000800180018001C1
:1039000080018001800180018001800180018001AF
:10391000800180018001800180018001800180019F
:10392000800180018001000000006000C000C00133
:1039300080018001800180018001000300030006F6
:10394000000300018001800180018001800180016D
:10395000C000600000000000000000000000000047
:103960000000000000000000F010F81F080F000029
:103970000000000000000000000000000000000047
:103980000000000000000000000000000000000037
:103990000000000000000000000000000000000027
:1039A0000000002000200020002000200020002037
:1039B00000000020000000000000005000500050F7
:1039C00000000000000000000000000000000000F7
:1039D0000000000900090012007F0012007F0012A1
:1039E00000240024000000000010003800540050A3
:1039F000005000380014005400540038001000003B
:103A00000000803000490049004AC03220052009EA
:103A10002009C010000000000000000C001200127D
:103A200000140018002500230023801D0000000062
:103A300000000040004000400000000000000000C6
:103A4000000000000000000000000008001000104E
:103A50000020002000200020002000200010001086
:103A60000000004000200020001000100010001096
:103A70000010001000200020000000200070002036
:103A800000500000000000000000000000000000E6
:103A900000000000000000080008007F0008000887
:103AA0000000000000000000000000000000000016
:103AB0000000000000000000000000200020004086
:103AC0000000000000000000000000000070000086
:103AD00000000000000000000000000000000000E6
:103AE00000000000000000000000002000000000B6
:103AF0000000001000100010002000200020002016
:103B000000400040000000000000001000280044B9
:103B1000004400440044004400280010000000005D
:103B200000000010003000500010001000100010C5
:103B300000100010000000000000003000480044A9
:103B400000040008001000200040007C000000007D
:103B50000000003000480004000800100008004485
:103B600000480030000000000000000800180018A5
:103B7000002800280048007C000800080000000021
:103B80000000003C00200040007000480004004499
:103B90000048003000000000000000180024004031
:103BA000005000680044004400280010000000009D
:103BB0000000007C0004000800100010001000202D
:103BC0000020002000000000000000100028004439
:103BD0000028001000280044002800100000000009
:103BE00000000010002800440044002C00140004D1
:103BF000004800300000000000000000000000202D
:103C00000000000000000000000000200000000094
:103C10000000000000000020000000000000000084
:103C20000000002000200040000000000004000808
:103C300000300040003000080004000000000000D8
:103C4000000000000000007C00000000007C00007C
:103C50000000000000000000000000000040002004
:103C600000180004001800200040000000000000C0
:103C70000000003800640044000400080010001038
:103C800000000010000000000000800F4010A02E77
:103C9000A0512051205120512053C04D20204010D0
:103CA000000000080014001400140022003E00224E
:103CB00000410041000000000000003C0022002202
:103CC0000022003C002200220022003C00000000F4
:103CD0000000000E00110021002000200020002123
:103CE0000011000E000000000000003C0022002136
:103CF00000210021002100210022003C00000000E2
:103D00000000003E002000200020003E0020002097
:103D10000020003E000000000000003E00200020C7
:103D20000020003C002000200020002000000000B7
:103D30000000000E001100210020002700210021BA
:103D40000011000E000000000000002100210021F1
:103D50000021003F0021002100210021000000007F
:103D60000000002000200020002000200020002073
:103D700000200020000000000000000800080008EB
:103D8000000800080008004800480030000000005B
:103D90000000002200240028002800380028002409
:103DA000002400220000000000000020002000206D
:103DB00000200020002000200020003E0000000025
:103DC00000008020803180318031802A802A802A42
:103DD000802A802400000000000000210031003112
:103DE00000290029002500230023002100000000F5
:103DF0000000000C00120021002100210021002100
:103E00000012000C000000000000003C0022002214
:103E10000022003C002000200020002000000000C4
:103E20000000000C001200210021002100210021CF
:103E30000016000D000100000000003E00210021DE
:103E40000021003E0024002200218020000000000C
:103E50000000001C002200220020001C00020022A2
:103E60000022001C000000000000003E00080008C6
:103E70000008000800080008000800080000000012
:103E8000000000210021002100210021002100214B
:103E90000012000C00000000000000410041002260
:103EA000002200220014001400140008000000008A
:103EB00000004044404A402A802A802A802A802AE2
:103EC000802A0011000000000000004100220014C0
:103ED000001400080014001400220041000000003B
:103EE0000000004100220022001400080008000821
:103EF00000080008000000000000007E000200042E
:103F000000080010001000200040007E00000000AB
:103F100000000030002000200020002000200020B1
:103F20000020002000200020000000400040002071
:103F300000200020002000200010001000000000E1
:103F40000000006000200020002000200020002051
:103F50000020002000200020000000100028002881
:103F600000280044000000000000000000000000E5
:103F70000000000000000000000000000000000041
:103F8000000000000000007E004000200000000053
:103F90000000000000000000000000000000000021
:103FA000000000000000003800440004003C004411
:103FB0000044003C000000000000004000400058A9
:103FC0000064004400440044006400580000000005
:103FD00000000000000000300048004000400040A9
:103FE000004800300000000000000004000400341D
:103FF000004C004400440044004C00340000000029
:10400000000000000000003800440044007C004034
:10401000004400380000000000000060004000E0A4
:104020000040004000400040004000400000000010
:104030000000000000000034004C00440044004434
:10404000004C0034000400440000004000400058D0
:1040500000640044004400440044004400000000A8
:1040600000000040000000400040004000400040D0
:104070000040004000000000000000400000004040
:104080000040004000400040004000400040004030
:104090000000004000400048005000600050005008
:1040A00000480048000000000000004000400040C0
:1040B0000040004000400040004000400000000080
:1040C0000000000000000052006D00490049004956
:1040D00000490049000000000000000000000058F6
:1040E0000064004400440044004400440000000018
:1040F0000000000000000038004400440044004478
:1041000000440038000000000000000000000058DB
:104110000064004400440044006400580040004033
:104120000000000000000034004C00440044004443
:10413000004C0034000400040000000000000050A7
:1041400000600040004000400040004000000000CF
:10415000000000000000003000480040003000086F
:10416000004800300000000000000040004000E077
:10417000004000400040004000400060000000009F
:1041800000000000000000440044004400440044DB
:10419000004C00340000000000000000000000445B
:1041A000004400280028002800280010000000001B
:1041B000000000000000004900490055005500556E
:1041C0000055002200000000000000000000004434
:1041D00000280028001000280028004400000000EB
:1041E00000000000000000440044002800280028CF
:1041F0000010001000100010000000000000007807
:10420000000800100020002000400078000000009E
:1042100000000010002000200020002000400020AE
:1042200000200020002000200000002000200020AE
:10423000002000200020002000200020002000207E
:10424000000000400020002000200020001000207E
:1042500000200020002000200000000000000000DE
:104260000074005800000000000000000000000082
:10427000000000000070005000500050005000503E
:10428000005000700000000000000000000000006E
:10429000000000000000000000000000000000001E
:1042A00000000000000010001000100010001000BE
:1042B00010000000100000000000000000002800B6
:1042C000280028000000000000000000000000009E
:1042D000000000000000140014003E00140028003C
:1042E0007C002800280000000000000010003800BA
:1042F000540050003800140014005400380010001E
:104300000000000000004400A800A80050001400B5
:104310001A002A0024000000000000000000200015
:10432000500050002000E800980098006000000055
:1043300000000000000080008000800000000000FD
:10434000000000000000000000000000000040002D
:10435000800080008000800080008000800080005D
:1043600000000000000080004000400040004000CD
:1043700040004000400040000000000000004000FD
:10438000E0004000A000000000000000000000006D
:104390000000000000000000000020002000F800E5
:1043A00020002000000000000000000000000000CD
:1043B000000000000000000000000000400040007D
:1043C00000000000000000000000000000000000ED
:1043D000C00000000000000000000000000000001D
:1043E000000000000000000000000000400000008D
:1043F00000000000000020002000200040004000DD
:1044000080008000800000000000000000006000CC
:1044100090009000900090009000900060000000DC
:1044200000000000000020006000A000200020002C
:1044300020002000200000000000000000006000BC
:10444000900010001000200040008000F0000000EC
:1044500000000000000060009000100060001000EC
:10446000100090006000000000000000000010003C
:104470003000500050009000F800100010000000C4
:10448000000000000000700040008000E00010000C
:1044900010009000600000000000000000006000BC
:1044A00090008000A000D00090009000600000000C
:1044B000000000000000F00010002000200020009C
:1044C00040004000400000000000000000006000CC
:1044D000900090006000900090009000600000004C
:1044E000000000000000600090009000B00050004C
:1044F00010009000600000000000000000000000BC
:10450000000040000000000000000000400000002B
:10451000000000000000000000004000000000005B
:10452000000000004000400000000000000000000B
:10453000000010006000800060001000000000001B
:10454000000000000000000000000000F00000007B
:10455000F00000000000000000000000000000006B
:10456000000080006000100060008000000000007B
:1045700000000000000060009000100020004000DB
:1045800040000000400000000000000000001C008F
:1045900022005B00A500A500A500A5009E0041002B
:1045A00000000000000020005000500050005000AB
:1045B0007000880088000000000000000000F0008B
:1045C00088008800F000880088008800F000000063
:1045D00000000000000038004400840080008000DB
:1045E0008400440038000000000000000000E000EB
:1045F000900088008800880088009000E00000009B
:10460000000000000000F80080008000F80080003A
:1046100080008000F800000000000000000078002A
:10462000400040007000400040004000400000009A
:1046300000000000000038004400840080009C005E
:1046400084004400380000000000000000008800E2
:1046500088008800F8008800880088008800000032
:1046600000000000000080008000800080008000CA
:1046700080008000800000000000000000001000AA
:10468000100010001000100090009000600000006A
:1046900000000000000088009000A000E000A000E2
:1046A00090009000880000000000000000008000E2
:1046B000800080008000800080008000F00000000A
:1046C0000000000000008200C600C600AA00AA0088
:1046D000AA00AA0092000000000000000000840070
:1046E000C400A400A400940094008C008400000086
:1046F00000000000000030004800840084008400B6
:104700008400480030000000000000000000F000BD
:10471000880088008800F000800080008000000091
:104720000000000000003000480084008400840085
:1047300084005800340004000000000000007800ED
:10474000440044007800500048004400420000004B
:104750000000000000007000880080007000080069
:104760008800880070000000000000000000F800D1
:104770002000200020002000200020002000000059
:104780000000000000008400840084008400840095
:104790008400480030000000000000000000880095
:1047A00088005000500050005000500020000000D1
:1047B0000000000000009200AA00AA00AA00AA00BF
:1047C000AA00AA00440000000000000000008400CD
:1047D00048004800300030004800480084000000D5
:1047E0000000000000008800500050002000200061
:1047F0002000200020000000000000000000F80061
:10480000080010002000200040008000F800000098
:10481000000000000000C0008000800080008000D8
:104820008000800080008000000000000000800008
:1048300080004000400040004000200020000000B8
:10484000000000000000C0004000400040004000A8
:104850004000400040004000000000000000400018
:10486000A000A000A0000000000000000000000068
:104870000000000000000000000000000000000038
:10488000000000000000F8000000000000008000B0
:1048900040000000000000000000000000000000D8
:1048A00000000000000000000000E00010007000A8
:1048B00090009000700000000000000000008000E8
:1048C0008000A000D00090009000D000A000000068
:1048D0000000000000000000000060009000800068
:1048E0008000900060000000000000000000100048
:1048F00010005000B00090009000B0005000000088
:104900000000000000000000000060009000F000C7
:104910008000900060000000000000000000C00067
:104920008000C000800080008000800080000000C7
:10493000000000000000000000005000B0009000E7
:104940009000B00050001000000000000000800047
:104950008000A000D0009000900090009000000027
:104960000000000000008000000080008000800047
:104970008000800080000000000000000000800037
:1049800000008000800080008000800080008000A7
:10499000000000000000800080009000A000C00027
:1049A000A0009000900000000000000000008000C7
:1049B0008000800080008000800080008000000077
:1049C00000000000000000000000A600DA009200D5
:1049D0009200920092000000000000000000000021
:1049E0000000A000D0009000900090009000000017
:1049F0000000000000000000000060009000900037
:104A00009000900060000000000000000000000026
:104A10000000A000D00090009000D000A000800016
:104A2000000000000000000000005000B0009000F6
:104A30009000B000500010000000000000000000D6
:104A40000000A000C0008000800080008000000006
:104A500000000000000000000000E00090004000A6
:104A600020009000600000000000000000008000B6
:104A70008000C0008000800080008000C000000036
:104A80000000000000000000000090009000900076
:104A90009000B00050000000000000000000000086
:104AA00000008800880050005000500020000000E6
:104AB000000000000000000000009200AA00AA0010
:104AC000AA00AA004400000000000000000000004E
:104AD00000008800500020002000500088000000E6
:104AE000000000000000000000008800500050009E
:104AF0005000200020002000000000000000000006
:104B00000000F0001000200040008000F0000000D5
:104B1000000000000000C000800080008000000055
:104B20008000800080008000000000000000800005
:104B30008000800080008000800080008000800075
:104B4000000000000000C0004000400040002000C5
:104B50004000400040004000000000000000000055
:104B600000000000E800B0000000000000000000AD
:104B70000000000000000000E000A000A000A00075
:104B8000A000A000E0000000000000000000000005
:104B90000000000000000000400040004000400015
:104BA0004000400000004000A000A000A000000065
:104BB0000000000000000000000024002400FE00AF
:104BC0004800FC00480048003800540050003800FD
:104BD00014001400540038004400A800A80050003D
:104BE00014001A002A0024001000280028001000D9
:104BF00074004C004C003000100010001000000049
:104C0000000000000000000008001000100010006C
:104C10001000100010000800100008000800080034
:104C20000800080008001000000000002400180020
:104C30003C001800240000000000000010001000DC
:104C40007C001000100000000000000000000000C8
:104C50000000080008001000000000000000000034
:104C60003C00000000000000000000000000000008
:104C700000000000180018000800080008001000DC
:104C80001000200020002000180024002400240030
:104C90002400240024001800080018002800080040
:104CA0000800080008000800380044000000040064
:104CB0000800100020007C001800240004001800E8
:104CC000040004002400180004000C001400240058
:104CD00044007E00040004003C0020002000380056
:104CE00004000400240018001800240020003800EC
:104CF00024002400240018003C00040008000800E0
:104D000008001000100010001800240024001800F3
:104D1000240024002400180018002400240024008B
:104D20001C00040024001800000000001000000017
:104D3000000010000000000000000000080000005B
:104D4000000008001000000000000000040018002F
:104D500020001800040000000000000000003C00DB
:104D600000003C00000000000000000020001800CF
:104D700004001800200000001800240004000800AF
:104D800010001000000010003C0042009900A50037
:104D9000A5009D0042003800380044004400440053
:104DA0007C00440044004400780044004400780043
:104DB00044004400440078001C00220042004000EF
:104DC0004000420022001C007000480044004400E3
:104DD00044004400480070007C00400040007C001B
:104DE0004000400040007C003C00200020003800D3
:104DF00020002000200020001C0022004200400073
:104E00004E00420022001C004400440044007C008C
:104E10004400440044004400100010001000100042
:104E20001000100010001000040004000400040032
:104E300004002400240018004400480050007000C2
:104E400050004800480044002000200020002000BE
:104E50002000200020003C008200C600C600AA00FE
:104E6000AA00AA00AA00920042006200520052006A
:104E70004A004A0046004200180024004200420056
:104E8000420042002400180078004400440044001E
:104E9000780040004000400018002400420042001A
:104EA000420042002C001A007800440044007800C0
:104EB00050004800440042003800440040003800E0
:104EC00004004400440038007C0010001000100072
:104ED000100010001000100042004200420042008A
:104EE000420042002400180044004400280028002A
:104EF00028002800280010009200AA00AA00AA009A
:104F0000AA00AA00AA0044004200240024001800BD
:104F1000180024002400420044002800280010004B
:104F200010001000100010007C00040008001000A9
:104F30001000200040007C001C0010001000100039
:104F40001000100010001C001000100008000800E5
:104F500008000800040004001C0004000400040011
:104F60000400040004001C0010002800440000009D
:104F70000000000000000000000000000000000031
:104F800000000000000000002000100010000000E1
:104F900000000000000000000000000018000400F5
:104FA0001C00240024001C002000200028003400E5
:104FB0002400240034002800000000001800240011
:104FC00020002000240018000400040014002C001D
:104FD000240024002C00140000000000180024000D
:104FE0003C002000240018000000180010001000F1
:104FF0001800100010001000000018002400240009
:1050000018000400240018002000200028003400AC
:1050100024002400240024001000000010001000D0
:105020001000100010001000080000000800080028
:10503000080008002800100020002000240028009C
:105040003000280024002400100010001000100080
:10505000100010001000100000000000A600DA0090
:10506000920092009200920000000000280034009C
:105070002400240024002400000000001800240064
:10508000240024002400180000002800340024001C
:105090003800200020002000000014002C00240014
:1050A0001C00040004000400000000002C0030007C
:1050B0002000200020002000000000001800240034
:1050C0001000080024001800000010003800100034
:1050D0001000100010001800000000002400240040
:1050E000240024002C0014000000000044004400B0
:1050F0002800280028001000000000009200AA00EC
:10510000AA00AA00AA0044000000000044002800F1
:10511000100010002800440000002800280028008B
:105120001000100010001000000000003C000400FF
:105130000800100020003C000000080010001000D3
:1051400020001000100008001000100010001000D7
:1051500010001000100010000000100008000800EF
:1051600004000800080010000000000000006000BB
:1051700092000C0000000000FF00FF00FF00FF0095
:10518000FF00FF00FF00FF00A85100080000002002
:105190003C000000CC260008E45100083C00002040
:1051A00014420000DC26000800000000010000009E
:1051B00010000000000000000024F400B8270008E0
:1051C00010001800883900080C000C008842000804
:1051D00008000C00884B00080800080000000000D0
:0451E0000000FFFFCD
:040000050800018965
:00000001FF
